:100000000C9449010C94CF1F0C94A81F0C94811FD1
:100010000C945A1F0C9471010C9471010C94331FB1
:100020000C9471010C9471010C94481C0C94B71C35
:100030000C9471010C9471010C9471010C94710178
:100040000C9471010C9471010C9471010C94710168
:100050000C9471010C9471010C9471010C94E91EC3
:100060000C9471010C9471010C9471010C94710148
:100070000C9471010C9471010C9471010C94710138
:100080000C9471010C9471010C9471010C94710128
:100090000C9471010C9471010C9471010C94710118
:1000A0000C9471010C9471010C947101000000001A
:1000B000000000002A2B28000000000000000000C3
:1000C0000000000000000000000000002C9EB4A012
:1000D000A1A2A434A6A7A5AE362D3738271E1F200F
:1000E000212223242526B333B62EB7B89F848586D4
:1000F0008788898A8B8C8D8E8F9091929394959618
:100100009798999A9B9C9D2F3130A3AD3504050695
:100110000708090A0B0C0D0E0F10111213141516F7
:100120001718191A1B1C1DAFB1B0B5000000000054
:100130002300260029002C002F00080B00020202D9
:100140000000090400000102020000052400100163
:100150000524010101042402060524060001070507
:10016000810310004009040100020A000000070595
:100170000202400000070583024000000403090456
:1001800012010002EF02014041233680000101020A
:10019000030141726475696E6F204C4C43004172DB
:1001A0006475696E6F204C656F6E6172646F0000DC
:1001B000000000250028002B002E00310000000068
:1001C0000200090F0000030401000C000000000001
:1001D000000000000000000000000000000000001F
:1001E000240027002A002D003000040802011040DE
:1001F0008040102040804080080204018040201090
:100200000201108010204040200404040404030470
:1002100005020202020403020202020606060606A4
:10022000060404020202040405010902A1010901F5
:10023000A100850105091901290315002501950370
:1002400075018102950175058103050109300931A8
:1002500009381581257F750895038106C0C0050101
:100260000906A1018502050719E029E71500250106
:100270007501950881029501750881039506750839
:10028000150025730507190029738100C000292076
:100290008F2611241FBECFEFDAE0DEBFCDBF14E002
:1002A000A0E0B1E0E0E8F4E502C005900D92AE3CBC
:1002B000B107D9F726E0AEECB4E001C01D92AE3430
:1002C000B207E1F711E0C8E4D1E004C02197FE01D4
:1002D0000E941128C734D107C9F70E9487210C94C6
:1002E000332A0C9400008CBD9DBD0895FC01818DC6
:1002F000928D08950895FC0180912105882311F1C4
:100300003FB7F89482E08093E9002091F200822FB9
:1003100090E01816190614F481E090E0882339F073
:10032000289844E6409320054091F1004083222321
:1003300039F02091F200211103C02BE62093E80050
:100340003FBF08958FEF9FEF0895CF93DF931F92E4
:10035000CDB7DEB76983DC01ED91FC910280F381BA
:10036000E02D41E050E0BE016F5F7F4F09950F9097
:10037000DF91CF91089583E08093E9008091F200AE
:10038000882319F08AE38093E8000895CF93DF93E0
:100390001F92CDB7DEB7FC018485958597FD08C017
:1003A0002FEF3FEF358724870F90DF91CF9108958E
:1003B000CE0101960E947B01019719F4898190E09A
:1003C000F3CF8FEF9FEFF0CF0F931F93CF93DF9378
:1003D0001F92CDB7DEB78C01FC018485958597FF10
:1003E0000BC0CE0101960E947B01019771F48981B7
:1003F00090E0F80195878487F801848595850F90B2
:10040000DF91CF911F910F9108958FEF9FEFF1CF63
:10041000FC018485958597FD0BC09FB7F89482E019
:100420008093E9008091F2009FBF90E001960895CB
:100430009FB7F89482E08093E9008091F2009FBF1B
:1004400090E00895409115055091160520911305EF
:100450003091140542175307B4F49091E800957059
:10046000E1F39091E80092FD19C08093F100809132
:1004700015059091160501968F739927892B19F40C
:100480008EEF8093E80080911505909116050196F6
:10049000909316058093150581E0089580E00895F6
:1004A000DF92EF92FF920F931F93CF93DF93D82E9B
:1004B0008A01EB017B01E40EF51ECE15DF0559F034
:1004C000D7FE12C0FE0184910E9422022196811162
:1004D000F4CF0FEF1FEFC801DF91CF911F910F9164
:1004E000FF90EF90DF9008958881EECF2FB7F894BA
:1004F00087708093E9009091E800892F807295FFC2
:1005000004C09091F20080E4891B2FBF089583E01E
:100510000E94760290E00895615030F02091F10041
:10052000FC0120830196F8CF289884E6809320056B
:10053000089580910B0581110DC082E0809307051D
:1005400084E08093080510920A051092090581E065
:1005500080930B0587E095E008950F931F93CF9349
:10056000DF931F92CDB7DEB782E0898342E450E08B
:100570006AE371E080E80E9450020E949902DC0167
:1005800012960D911C910115110589F0D801ED917C
:10059000FC910280F381E02DBE016F5F7F4FC801A7
:1005A000099597FD04C0F80100851185ECCF89817C
:1005B0000F90DF91CF911F910F91089581508F304F
:1005C00008F047C0E82FF0E0E851FD4F0C941128E7
:1005D00005030903F702FD02010329032903290387
:1005E0000C03120316031A0320032903240380912A
:1005F00080008F77809380000895809180008F7DA8
:10060000F9CF80918000877FF5CF84B58F7784BD47
:10061000089584B58F7DFBCF809190008F77809374
:1006200090000895809190008F7DF9CF8091900087
:10063000877FF5CF8091C0008F778093C0000895A9
:100640008091C0008F7DF9CF8091C200877F809319
:10065000C2000895CF93DF9390E0FC01E651FE4F76
:100660002491875F9D4FFC0184918823D1F090E015
:10067000880F991FFC01E452FE4FA591B491FC0133
:10068000E155FE4FC591D491623071F49FB7F89453
:100690003C91822F809583238C93E8812E2B288395
:1006A0009FBFDF91CF9108958FB7F894EC912E2BD7
:1006B0002C938FBFF6CF3FB7F894809103059091AC
:1006C0000405A0910505B091060526B5A89B05C0B7
:1006D0002F3F19F00196A11DB11D3FBFBA2FA92FC1
:1006E000982F8827BC01CD01620F711D811D911DBE
:1006F00042E0660F771F881F991F4A95D1F708952A
:100700008F929F92AF92BF92CF92DF92EF92FF9221
:100710006B017C010E945B034B015C01C114D1049D
:10072000E104F104B9F00E945B03681979098A09B0
:100730009B09683E73408105910580F321E0C21A50
:10074000D108E108F10888EE880E83E0981EA11C0C
:10075000B11CE4CFFF90EF90DF90CF90BF90AF90AF
:100760009F908F9008957F928F929F92AF92BF92A9
:10077000CF92DF92EF92FF920F931F93CF93DF936D
:10078000C82E8B017A0180912105811110C08FEF55
:100790009FEFDF91CF911F910F91FF90EF90DF902E
:1007A000CF90BF90AF909F908F907F900895809151
:1007B000190580FF05C08091E00082608093E00011
:1007C000CE2DDF2DD12C8AEFB82E8C2D8770982E50
:1007D0008C2D8072882E8C2D8074782E9AE3A92E11
:1007E000209719F4DD2009F452C08C2D0E94760266
:1007F00081110AC0BA94BB2051F261E070E080E040
:1008000090E00E948003ECCF8C171D0611F00CF0D5
:100810008C2F9FB7F8949092E9002091E80025FD75
:1008200002C09FBFDDCF282F30E0C21BD30B882032
:1008300029F08150A0F01092F100FBCFF801C7FC25
:100840000AC0815050F041914093F100FACF449199
:100850004093F10031968150D0F7020F131FDD2035
:1008600021F0A092E800D12CDCCF8091E80085FD3A
:1008700007C0A092E800DD24D394209791F2F3CF33
:10088000209779F6772069F2A092E800CACF5D98A8
:1008900084E680931805C7017CCFCF93DF93EC01EA
:1008A00080911E01882331F083E00E94B303181663
:1008B000190634F081E090E09B838A8380E090E029
:1008C000DF91CF9108952FB7F8946091FF04709154
:1008D000000580910105909102052FBF08950895AC
:1008E000FC0120812EBD9B012150310941F0518135
:1008F0000DB407FEFDCF4EB55EBD4193F5CF6150FF
:100900007109860F971F0DB407FEFDCF2EB5FC01B0
:1009100020830895E0916B05F0916C0580819091A2
:100920006A05892B80830895E0916B05F0916C0531
:10093000908180916A0580958923808308958EBD7A
:1009400000000DB407FEFDCF8EB50895AF92BF92A3
:10095000CF92DF92EF92FF920F931F93CF93DF938B
:10096000CDB7DEB728970FB6F894DEBF0FBECDBF68
:100970008C017B016A0180916E058333E1F458019B
:10098000A40EB51EA016B10609F46FC00E9494040F
:1009900080EF0E949F04812F0E949F04802F0E945D
:1009A0009F040F5F1F4FF70181917F010E949F04F9
:1009B0000E948A04E7CF5B01A40EB51E8433C1F404
:1009C0000E94940419830A838D2D80688B83CC82C6
:1009D00064E070E0CE0101960E947004AE14BF0482
:1009E00009F441C0F70181917F010E949F04F6CF75
:1009F0000E9494040F3F110509F028F419820A831C
:100A000084E08B830CC017FD17C019820A8333E082
:100A1000169507953A95E1F7007E0C600B8386E00A
:100A2000C816D104A0F5F701DE011496EA15FB05FE
:100A300099F081918D93FACFC80126E0969587951C
:100A40002A95E1F7807E19830A830115104C10F472
:100A50008461D7CF8C61D5CFB6016D5F7F4FCE015A
:100A600001960E9470040E948A04C60128960FB65F
:100A7000F894DEBF0FBECDBFDF91CF911F910F91D4
:100A8000FF90EF90DF90CF90BF90AF90089563E01C
:100A900070E0CE0101960E947004F70181917F0100
:100AA0000E949F04AE14BF04C1F7DDCFCF93DF9344
:100AB0001F92CDB7DEB7898341E050E0BE016F5F82
:100AC0007F4F90E080E00E94A6040F90DF91CF91CD
:100AD000089590E020916E05233339F40C96982FF9
:100AE000990F990F990F80E008954896F8CF90E0FC
:100AF00020916E05233339F40896982F990F990F9A
:100B0000990F80E008954096F8CFDA01E0916F05E3
:100B1000F0E0FE2FEE27E60FF71F90E0982F8827D2
:100B2000A901BD018E0F9F1F0C94A604CF93DF93E4
:100B300000D0CDB7DEB779836A8322E030E0AE0122
:100B40004F5F5F4F60E170E00E9485050F900F904E
:100B5000DF91CF910895AB0124E030E06CE070E0CC
:100B60000C948505CF93DF9300D0CDB7DEB77983A2
:100B70006A8322E030E0AE014F5F5F4F64E070E0D7
:100B80000E9485050F900F90DF91CF910895CF932C
:100B9000DF931F92CDB7DEB720916F0530E0322F83
:100BA0002227260F371F90E0982F8827498341E09E
:100BB00050E0BE016F5F7F4F820F931F0E94A6041B
:100BC0000F90DF91CF910895462F62E070E00C9472
:100BD000C705CF93DF931F92CDB7DEB76983DC01E2
:100BE000ED91FC910280F381E02D41E050E0BE01E7
:100BF0006F5F7F4F09950F90DF91CF910895CF934D
:100C0000DF931F92CDB7DEB76983DC01ED91FC91D4
:100C10000280F381E02D41E050E0BE016F5F7F4F25
:100C200009950F90DF91CF910895FC019485FB0108
:100C30008485981303C081E0983008F080E008951F
:100C4000CF93DF931F92CDB7DEB76983DC01ED91BF
:100C5000FC910280F381E02D41E050E0BE016F5F26
:100C60007F4F09950F90DF91CF9108950895FF92DE
:100C70000F931F93CF93DF93EB01FC01178A168A22
:100C80002A81211109C02B81211106C02C8121113B
:100C900003C02D812223E1F041155105C9F08A01DD
:100CA000FC01F08C80E591E00E947301BE016E5F53
:100CB0007F4F8F2D0E94AB05B8018F2D0E949605A6
:100CC00081E090E0DF91CF911F910F91FF90089507
:100CD00080E0F7CFFC01848595850895FC01848927
:100CE0009589089525E833E0FC0131832083FB01D9
:100CF0004089518962897389FC01428353836483EB
:100D000075830895DC01ED91FC91048CF58DE02D47
:100D1000099480911D0590911C05891B87FD805FBA
:100D2000882391F0E0911C0580911D05E81761F082
:100D3000EF5FE03108F0E0E0E0931C05F0E0E25105
:100D4000FB4F8081811101C08FEF90E00895CF9219
:100D5000DF92EF92FF920F931F93CF93DF93209137
:100D60001B0530E0F901E354FE4F8491F901E6518F
:100D7000FE4FD491F901E75FFD4FC491CC2379F088
:100D800081110E94DE02EC2FF0E0EE0FFF1FE45D08
:100D9000FE4FA591B491EC91ED23C1E009F4C0E0C0
:100DA0000E9463040091EA041091EB042091EC048A
:100DB0003091ED046B017C01C01AD10AE20AF30AFA
:100DC000970186010B3F11052105310510F01092A6
:100DD000E9046093EA047093EB048093EC0490932D
:100DE000ED048091E9048F5F8093E9048A3038F440
:100DF000823070F58130F9F01092E90420C08A3019
:100E0000C1F18B30C9F78091E7048D3FA8F780913D
:100E10001D058F5F803108F080E090911C059817C8
:100E200059F3E82FF0E09091E804E251FB4F9083F2
:100E300080931D05E1CF1092E8041092E704DF9142
:100E4000CF911F910F91FF90EF90DF90CF90089579
:100E50008091E7048C0F8093E7048091E80490E090
:100E60009595879520E0C11120E8822B8093E804B6
:100E7000E6CF8091E70481708C1719F08093E70426
:100E8000DECF8DEFFBCFDC01FB0112962C91129788
:100E9000848195812817190641F491818081813AD6
:100EA00031F49D7F81E0913009F080E00895813236
:100EB000E1F79B3029F482811F968C9381E008959D
:100EC0009A3099F7828150968C93F8CFAF92BF9267
:100ED000CF92DF92EF92FF920F931F93CF93DF9306
:100EE0001F92CDB7DEB77C0169836A01590141E0E9
:100EF00050E0BE016F5F7F4FFC0183810E94B3030E
:100F00008C0197FD0BC0F7018381A501B6018064B8
:100F10000E94B303080F191F97FD8C01C8010F90A1
:100F2000DF91CF911F910F91FF90EF90DF90CF90C5
:100F3000BF90AF900895DC01FB0188E4808389E4D1
:100F4000818384E482831D969C911D979F709F5B93
:100F500093831D968D919C9124E0969587952A9573
:100F6000E1F78F708F5B848385E00895EF92FF92A5
:100F70000F931F93CF93DF93FB012081213871F5ED
:100F80002381223259F5DC0112964C91248135815E
:100F90004217130619F5EC010B851C85F12CE12C89
:100FA0000115110589F0F801448155816281738131
:100FB00080E80E9450028F3F980749F0E80EF91E22
:100FC000D8010D911C91ECCF81E08F87C701DF9193
:100FD000CF911F910F91FF90EF90089590E080E0E6
:100FE000F6CFCF93DF93CDB7DEB769970FB6F894FE
:100FF000DEBF0FBECDBFFC01DB018C918F5F8C93F8
:101000009E012D5F3F4F8DE0D9011D928A95E9F732
:1010100029E0298384E08A8391E09D8383E08E83A5
:101020002A8721E22B879C879D879F8722E2288B36
:1010300027E02B8B25E02C8B8E8B20E430E0388F43
:101040002F8B998F82818B8395858685998B8A8B4F
:10105000838180688D8B49E150E0BE016F5F7F4FD7
:1010600080E00E94500269960FB6F894DEBF0FBE72
:10107000CDBFDF91CF910895CF93DF938091DF04AF
:10108000811167C081E08093D2048093D30428ED5E
:1010900034E03093D5042093D4041092D7041092F6
:1010A000D6042CE331E03093CF042093CE04109289
:1010B000DA041092D9041092DC041092DB048093BD
:1010C000DD048093DE0481EC8093D8040E949902B1
:1010D000FC0181819091D204482F490F5527551F5B
:1010E000483051059CF5A281B381109709F52EEC8B
:1010F00034E03383228320812093D0048093D10471
:101100008091D304820F80832091D404A22FB091C8
:10111000D5048A2F821B8917C8F481813D91C82F7D
:10112000D0E0C050DF4F38838F5F8183F2CFD90189
:1011300018962D913C91199721153105C1F72EEC88
:1011400034E019963C932E931897D5CF81E0809385
:10115000DF048EEC94E0DF91CF910895CF93DF937D
:10116000EC010E943C0828E030E0AE0162E0DF9133
:10117000CF910C946607CF93DF9300D000D0CDB70A
:10118000DEB790910B0699838A836B831C820E9441
:101190003C0824E030E0AE014F5F5F4F61E00E9409
:1011A00066070F900F900F900F90DF91CF910895E9
:1011B00090910B06892B981731F080930B0660E015
:1011C00080E00C94BB080895CF92DF92EF92FF92DB
:1011D0000F931F93CF93DF936C01EB017B01E40E20
:1011E000F51E10E000E0CE15DF0581F069916D304D
:1011F000D1F3D601ED91FC910190F081E02DC60173
:101200000995892B19F00F5F1F4FEDCFC801DF91B2
:10121000CF911F910F91FF90EF90DF90CF900895A5
:10122000DC016838A0F06858FD0186E0662321F0F3
:101230009681961301C01682815031968111F6CFA6
:10124000CD0104960E94AE0881E090E00895E62F5B
:10125000F0E067FF12C0E058F10981E090E001C0C2
:10126000880FEA95EAF7809514969C911497892344
:1012700014968C93149760E0D7CFE455FF4F649198
:10128000662359F067FFD0CF14968C9114978D7F09
:1012900014968C9314976F77C7CF90E080E00895F1
:1012A000DC01683888F1685816968C911697861775
:1012B00021F117968C9117978617F9F018968C9153
:1012C00018978617D1F019968C9119978617A9F05F
:1012D0001A968C911A97861781F01B968C911B9702
:1012E000861759F0FD01369690E080E0219121119A
:1012F00039C08A0F9B1FFC016683CD0104960E94B2
:10130000AE0881E090E00895E62FF0E067FF11C09D
:10131000E058F10921E030E001C0220FEA95EAF738
:1013200014968C911497822B14968C93149760E0EA
:10133000BBCFE455FF4F6491611109C081E090E09B
:1013400013969C938E93129790E080E0089567FF28
:10135000ABCF14968C911497826014968C9314974B
:101360006F77A2CF01968630910509F0BFCFE6CF07
:10137000EF92FF921F93CF93DF93EC01162F0E9401
:1013800050097C01612FCE010E941009C7019927E5
:10139000DF91CF911F91FF90EF9008950F931F93CE
:1013A000CF93DF938C01D0E0C0E0F801EC0FFD1F7C
:1013B0006491662341F08AE196E00E94B809892B86
:1013C00011F02196F2CFCE01DF91CF911F910F91B5
:1013D0000895FC01768765870895DC01ED91FC9105
:1013E000068CF78DE02D099591E089270895862FC9
:1013F000089581E08627089521E0FC0184858830E6
:1014000008F020E0822F0895089590E080E008958C
:10141000FB0101900020E9F73197AF01461B570B04
:10142000DC01ED91FC910280F381E02D09948F9213
:101430009F92AF92BF92EF92FF920F931F93CF9321
:10144000DF93CDB7DEB7A1970FB6F894DEBF0FBE1E
:10145000CDBF7C01FA01CB0119A2223008F42AE0A9
:101460008E010F5D1F4F822E912CB12CA12CBF013C
:10147000A50194010E94E027F901CA016A300CF528
:10148000605DD8016E938D01232B242B252B79F7DA
:1014900090E080E0109721F0BD01C7010E94080A8A
:1014A000A1960FB6F894DEBF0FBECDBFDF91CF91EE
:1014B0001F910F91FF90EF90BF90AF909F908F90F2
:1014C0000895695CDECF8F929F92AF92BF92CF92C8
:1014D000DF92EF92FF920F931F93CF93DF937C01E4
:1014E000EB016C0182E0C80ED11C4701E5E08E0ED5
:1014F000911C10E000E0F60141916F0150E070E0B6
:1015000060E02AE0CE010E94170A5C01E881F981BF
:101510000190F081E02D6EE2CE0109958A0D9B1DB0
:10152000080F191FC814D90431F7F701458150E09D
:1015300070E060E02AE0CE010E94170A800F911F40
:10154000DF91CF911F910F91FF90EF90DF90CF909F
:10155000BF90AF909F908F90089567E973E00C94CF
:10156000080A0F931F93CF93DF93EC010E94080AA0
:101570008C01CE010E94AD0A800F911FDF91CF91A7
:101580001F910F9108950F931F93CF93DF93EC0159
:10159000FB014481558160817181E881F98102807C
:1015A000F381E02D09958C01CE010E94AD0A800FD8
:1015B000911FDF91CF911F910F9108950895FC0124
:1015C00080819181009711F00C943B2760E070E0DE
:1015D000CB010895CF93DF93DC0114962D913C91BC
:1015E0001597232B79F0FB01CD91DC9160817181FE
:1015F000CE010E94192A009729F08C1B9D0BDF91C8
:10160000CF9108958FEF9FEFFACFFC0124813581B0
:10161000232B39F421E0FB018081882349F020E06D
:1016200007C0808191810E94092A21E0892BB9F7A6
:10163000822F08950F931F93CF93DF93EC0188813E
:101640009981009759F02A813B812617370730F09E
:1016500081E0DF91CF911F910F9108958B016F5F12
:101660007F4F0E943C29009759F0998388831B8300
:101670000A832C813D81232B59F7FC011082E8CF8E
:1016800080E0E7CFEF92FF920F931F93CF93DF930A
:101690006115710541F480E0DF91CF911F910F91A9
:1016A000FF90EF90089541155105B1F07B01EC01D9
:1016B0000C811D81040F151FB8010E941A0B88238D
:1016C00051F3288139818C819D81B701820F931F4D
:1016D0000E94122A1D830C8381E0DECFCF93DF931B
:1016E000EC0188819981009711F00E94B32819823A
:1016F00018821D821C821B821A82DF91CF9108956D
:10170000CF93DF93EC01FB0101900020E9F73197C3
:10171000AF01461B570B0E94420B811103C0CE0143
:101720000E946E0BCE01DF91CF910895CF93DF938E
:10173000EC01FB0144815581608171810E94420B63
:10174000811103C0CE010E946E0BCE01DF91CF91BB
:101750000895EF92FF920F931F93CF93DF93EC01C5
:101760007B018A01BA010E941A0B81110BC0CE01C4
:101770000E946E0BCE01DF91CF911F910F91FF90D0
:10178000EF9008951D830C83B701888199810E9491
:10179000122AF0CFCF93DF93EC01FB018617970756
:1017A00049F0608171816115710541F04481558175
:1017B0000E94A90BCE01DF91CF9108950E946E0B7C
:1017C000F9CFFC01118210821382128215821482D9
:1017D0000C94CA0BFC0111821082138212821582B2
:1017E0001482FB0101900020E9F73197AF01461BFD
:1017F000570B0C94A90BAF92BF92CF92DF92EF924E
:10180000FF920F931F93CF93DF937C016B015A01DB
:1018100089012417350720F48B2D5901042F182F27
:1018200069E973E0C7010E94EA0BD6011496CD91D5
:10183000DC91AC16BD0620F50C171D0708F4E80175
:10184000D601ED91FC911197EC0FFD1F10811082D4
:101850006D917C916A0D7B1D61157105E9F0FB01AD
:1018600001900020E9F73197AF01461B570BC701E4
:101870000E94A90BF60180819181C80FD91F18839E
:10188000C701DF91CF911F910F91FF90EF90DF90F3
:10189000CF90BF90AF900895C7010E946E0BEACF22
:1018A000FC0180819181009711F00C94B328089578
:1018B000CF92DF92EF92FF926B017C01C114D104B1
:1018C000E104F10441F00E94E326A70196010E9481
:1018D00077276B017C01C701B601FF90EF90DF9085
:1018E000CF900895AF92BF92CF92DF92EF92FF9286
:1018F0000F931F93CF93DF9300D000D0CDB7DEB707
:101900008C016B017A0180916E058333E9F45B01F0
:101910006801C40ED51EC016D106A9F10E94940418
:101920008FE00E949F04812F0E949F04802F0E94BD
:101930009F040F5F1F4F80E00E949F04F501819379
:101940005F010E948A04E7CF843369F50E94940402
:1019500019830A838F2D8F778B83EC8264E070E08C
:10196000CE0101960E947004A70170E060E0C601FC
:101970000E94022AE114F10421F0B701C6010E947D
:1019800070040E948A04C7010F900F900F900F906F
:10199000DF91CF911F910F91FF90EF90DF90CF904B
:1019A000BF90AF9008950E9494040F3F110509F075
:1019B00030F419820A831B8263E070E0D1CF17FDF7
:1019C0000BC019820A8333E0169507953A95E1F723
:1019D000007E08600B83F0CFC80126E096958795BE
:1019E0002A95E1F7807E19830A830115104C18F4BB
:1019F00080618B83E1CF8861FCCFCF93DF931F920F
:101A0000CDB7DEB720916F0530E0322F2227260FA9
:101A1000371F90E0982F882741E050E0BE016F5FAC
:101A20007F4F820F931F0E94720C89810F90DF916C
:101A3000CF910895CF93C82F462F61E070E00E94A8
:101A4000C70561E070E08C2F0E94FD0C8111F9CF79
:101A5000CF910895CF93C82F80E591E00E94730144
:101A600068E070E08C2FCF910C941A0DCF93C82FA3
:101A700080E591E00E94730160E170E08C2FCF91CE
:101A80000C941A0DCF93DF93EC01888D883020F4ED
:101A90000E94360D88E0888FDF91CF91089563E032
:101AA00070E00C94FD0CCF93C82F80E591E00E946C
:101AB00073018C2FCF910C944F0DEF92FF920F93E7
:101AC0001F93CF93DF937C0180916E05D4E0833325
:101AD00009F0D8E00AE515E0C0E0F8012191319164
:101AE0008F01F701848195812817390729F0CF5F8D
:101AF000DC13F3CF80E006C08C2F0E94530D84319D
:101B0000B1F781E0DF91CF911F910F91FF90EF909E
:101B10000895CF93DF93EC018C858830D0F40E9438
:101B2000530D843189F0882379F0883169F021E000
:101B30008C3159F4E881F9810084F185E02DCE01E2
:101B4000099521E0892B09F420E0822FDF91CF91C4
:101B5000089580E0FBCFCF92DF92EF92FF92CF9378
:101B6000DF93EC018C85883068F40E942A0D0E9476
:101B700063046B017C018C850E94530D811109C0A7
:101B800088E08C87DF91CF91FF90EF90DF90CF902E
:101B9000089561E070E080E090E00E9480030E9480
:101BA0006304AB01BC014C195D096E097F098D8589
:101BB0009E85B0E0A0E0481759076A077B07D8F276
:101BC0008C850E94360DDCCFCF93FC01C08D80E563
:101BD00091E00E94730160E270E08C2F0E941A0D68
:101BE00062E070E08C2F0E94FD0C84FD14C062E066
:101BF00070E08C2F0E94FD0C83FF08C068E18C2FE1
:101C00000E94E40580E090E0CF91089580E591E0A6
:101C10000E947301E5CF60E18C2F0E94E40581E012
:101C2000F2CFBF92CF92DF92EF92FF920F931F936A
:101C3000CF93DF9300D0CDB7DEB7B82E7A83698318
:101C40008A017901C980DA8047E0D4220E946905BF
:101C50008C0D9D1D96012E0D3F1D2130384080F0CA
:101C600020E038E0A9014C195D096A01B8010E9421
:101C7000720C0C0D1D1DEC18FD088B2D0E946905C2
:101C8000A701B8010F900F90DF91CF911F910F9195
:101C9000FF90EF90DF90CF90BF900C94720CCF9399
:101CA000DF931F92CDB7DEB741E050E0BE016F5F1A
:101CB0007F4F90E080E00E94720C89810F90DF914D
:101CC000CF910895CF93DF93C4E1D0E00E944F0EEF
:101CD000882361F061E070E080E090E00E94800382
:101CE0002197A1F780E0DF91CF91089581E0FBCFAC
:101CF000CF92DF92EF92FF920F931F93CF93DF93D8
:101D0000CDB7DEB7C454D1090FB6F894DEBF0FBE0D
:101D1000CDBFFC0182819381A481B58123968CAFD4
:101D20009DAFAEAFBFAF239721E023962FAF239790
:101D300023964CAD5DAD6EAD7FAD23974BAB5CABE9
:101D40006DAB7EAB89AF9AAFABAFBCAF8DA79EA793
:101D5000AFA7B8AB28AB4DA55EA56FA578A94FA3DB
:101D600058A769A77AA72EAB4BA95CA96DA97EA934
:101D700049A35AA36BA37CA38B8F9C8FAD8FBE8F7F
:101D800045E853E05C8B4B8B3FEF3D8B3E8B3F8BAD
:101D9000188E5E874D872AA7CFA0D8A4E9A4FAA4FD
:101DA000CF86D88AE98AFA8A2CA309A11AA12BA185
:101DB0003CA109871A872B873C875A8349838B83E9
:101DC0009C83AD83BE83809170058111BAC060E3AE
:101DD00072E080E090E00E9480030FB7F894809159
:101DE0006D0581113FC02AE132E0F90184914BEF8A
:101DF00051E0FA019491E82FF0E0EE0FFF1FE4525A
:101E0000FE4FA591B4918C919823D1F4EEECF1E0C2
:101E10008491FA01F490F9011491112389F0811150
:101E20000E94DE02E12FF0E0EE0FFF1FE155FE4FB2
:101E3000A591B4918FB7F8944C914F294C938FBFD3
:101E400061E081E10E942A038CB580618CBD8CB574
:101E500080648CBD61E08FE00E942A0361E080E134
:101E60000E942A0380916D058F5F80936D050FBFDF
:101E700080912101282F30E0F901E75FFD4FE491C7
:101E8000F0E0EE0FFF1FE155FE4F45915491509346
:101E90006C0540936B05F901E651FE4FE491E09328
:101EA0006A0561E00E942A030E948A0480E591E0AD
:101EB0000E94730184E380936E0580E80E945605BA
:101EC0000E94620E882309F472C088E00E945605C1
:101ED0000E944F0E883009F06AC080E10E945605CA
:101EE0000E944F0E803109F062C080E00E945605CA
:101EF0000E944F0E182F81115AC041E050E0BE01E0
:101F00006D5B7F4F8FE190E00E94720C24968FAD45
:101F10002497833009F04BC080E480936F0542E042
:101F20006EE170E0812F0E94C70542E06FE170E032
:101F3000812F0E94C7051F5F183089F781E08093C9
:101F4000700580E591E00E94730146E050E062E296
:101F500071E089E090E00E94A60444E050E0BE01F8
:101F60006D5F7F4F8FE090E00E94A60444E050E058
:101F7000BE01615F7F4F81E090E00E94A60444E0D3
:101F800050E0BE016B5E7F4F85E090E00E94A604AA
:101F900081E08C8789859A85AB85BC858093E70530
:101FA0009093E805A093E905B093EA056FC087E335
:101FB00080936E0580E80E9456050E94620E882379
:101FC00039F188E00E9456050E944F0E883001F5D5
:101FD00080E10E9456050E944F0E182F8031C1F4F7
:101FE00080E00E9456050E944F0E811111C041E011
:101FF00050E0BE016D5B7F4F89E390E00E94720C60
:1020000024968FAD2497843019F410936F0596CFE2
:1020100083E380936E0580E80E9456050E94620E5D
:10202000882391F180E10E9456050E944F0E803175
:1020300059F582E10E9456050E944F0E823121F52A
:1020400080E00E9456050E944F0E81111DC084E061
:1020500080936F0515E525961FAF259741E050E069
:10206000BE016C5B7F4F8BE190E00E94A60424963A
:102070001FAF249741E050E0BE016D5B7F4F8AE1C6
:1020800090E00E94A6045ACF10926E05CC5BDF4F01
:102090000FB6F894DEBF0FBECDBFDF91CF911F9179
:1020A0000F91FF90EF90DF90CF9008951F93CF9303
:1020B000DF931F92CDB7DEB7182F80E591E00E9425
:1020C0007301812F0E94690527E0129FF0011124FE
:1020D000EE5DFA4F22813381377041E050E0BE015E
:1020E0006F5F7F4F820F931F0E94720C89810F9048
:1020F000DF91CF911F910895FC01808D883040F4CD
:10210000218D328D232B21F00E94561090E00895EE
:102110008FEF9FEF0895CF93DF93FC012485283044
:1021200028F08FEF9FEFDF91CF910895EC010190A0
:10213000F081E02D0084F185E02D0995892B89F34C
:102140008C850E94561090E0EECFDA01E0916F0589
:10215000F0E0FE2FEE27E60FF71F90E0982F88277C
:10216000A901BD018E0F9F1F0C94720C6F927F927C
:102170008F929F92AF92BF92DF92EF92FF920F9356
:102180001F93CF93DF9300D0CDB7DEB7D82E7B015E
:102190003A01490122E030E0AE014F5F5F4F64E257
:1021A00070E00E94A51009811A81102701271027CD
:1021B0000E0D1F1D580147E0B4228D2D0E9477059A
:1021C0008A0D9B1D20916E052733C9F19501280DBD
:1021D000391D2130384098F120E038E07901EA18C3
:1021E000FB08A701B3010E94A6045401AE18BF0862
:1021F000E60CF71C8D2D0E947705A501B7010E9402
:10220000A604080D191D19830A8322E030E0AE01EF
:102210004F5F5F4F64E270E08D2D0E9485050F9047
:102220000F90DF91CF911F910F91FF90EF90DF9072
:10223000BF90AF909F908F907F906F900895A40172
:10224000B301DDCFEF92FF921F93CF93DF9300D0C6
:10225000CDB7DEB7182F22E030E0AE014F5F5F4F01
:1022600060E270E00E94A510E980FA80FE24EF246D
:10227000FE2422E030E0AE014F5F5F4F60E270E08D
:10228000812F0E94A51089819A81982789279827F4
:10229000E816F90689F487E0189FF0011124EE5D35
:1022A000FA4FF582E482C7010F900F90DF91CF9132
:1022B0001F91FF90EF9008957C01DBCF1F93CF9388
:1022C000DF93182F80E591E00E947301812F0E9417
:1022D0002211EC01812F0E944F0D873121F08C31AA
:1022E00011F0D0E0C0E0CE01DF91CF911F910895B1
:1022F000CF93DF93EC018C85883060F40E94530DFE
:10230000873111F08C3131F48C850E945E1181157A
:10231000984088F3DF91CF910895FC01848588303F
:1023200010F40C945E1190E080E00895CF92DF925B
:10233000EF92FF921F93CF93DF93182F7B01EA0157
:102340004130584010F0C0E0D8E080E591E00E94B4
:102350007301812F0E9422116C01812F0E944F0D69
:10236000873111F08C3121F5CC16DD0670F380E554
:1023700091E00E9473019E01A70170E060E0812F4F
:102380000E94B61060E270E0812F0E941A0D62E098
:1023900070E0812F0E94FD0C84FD0DC0812F0E94F2
:1023A0004F0D8823A9F080E591E00E947301EFCFE3
:1023B000D0E0C0E0DCCF60E1812F0E94E405CE01D7
:1023C000DF91CF911F91FF90EF90DF90CF90089514
:1023D000D0E0C0E0F4CF0F931F93CF93DF938C0135
:1023E000EA01FC018485883048F40E949611892B0B
:1023F00039F481E090E0F80193838283D0E0C0E07B
:10240000CE01DF91CF911F910F9108959F92AF92CE
:10241000BF92CF92DF92EF92FF920F931F93CF93D1
:10242000DF938C015B01942EE52EFC01C688D788D2
:10243000F08C80E591E00E9473018F2D0E942211A3
:10244000C92DDE2D8C179D0708F4EC019E01A50116
:10245000B6018F2D0E94B610F801868997898C0FDE
:102460009D1F978B868BCE01DF91CF911F910F918E
:10247000FF90EF90DF90CF90BF90AF909F90089526
:10248000CF93DF9300D0CDB7DEB722E030E0AE01CE
:102490004F5F5F4F68E270E00E94A51089819A81CA
:1024A0009827892798270F900F90DF91CF91089553
:1024B0008F929F92AF92BF92CF92DF92EF92FF9254
:1024C0000F931F93CF93DF93CDB7DEB72E970FB641
:1024D000F894DEBF0FBECDBF7C0190916E059111C7
:1024E00015C018E0812F2E960FB6F894DEBF0FBEF0
:1024F000CDBFDF91CF911F910F91FF90EF90DF90B3
:10250000CF90BF90AF909F908F90089504E0933349
:1025100009F008E06B0180E591E00E9473019E01E3
:102520002F5F3F4F5901490110E0812F0E944F0D4D
:10253000F40181934F018823C1F01F5F0113F5CF90
:1025400000E0F50181915F018D3149F0883139F06A
:102550008A51823020F00F5F1013F3CFC2CF60E1B9
:1025600070E0802F0E941A0D102FA12EB12CF501C2
:10257000EE0FFF1FE65AFA4F1182108283EE93E0AE
:102580000197F1F742E870E060E0812F0E94C705F3
:102590006FEF812F0E94E405B601C114D10491F4BC
:1025A00080911F019091200101968115F0EC9F0709
:1025B00008F44CC09093200180931F0160911F018B
:1025C00070912001812F0E94B20586E0E2E3F1E0E4
:1025D000DE01199601900D928A95E1F7F70183814A
:1025E0008F778C8784818D8785818E87B7016E5F19
:1025F0007F4F812F0E94AB05B601812F0E94960567
:1026000026E030E0AE01475F5F4F66E070E0812F6B
:102610000E94850561E070E0812F0E941A0D27E07D
:102620002A9DC0012B9D900D11249C012E5D3A4FD7
:102630007901F90111821082812F0E944012F70165
:10264000938382831682158214824CCF80E090ECB3
:10265000B1CFCF92DF92EF92FF920F931F93CF9360
:10266000DF9300D000D000D0CDB7DEB78C016B0176
:102670007A01FC01808D883010F40E94360D85E8C7
:1026800093E09A838983F60182819381A481B58145
:102690008B839C83AD83BE83B701CE0101960E94DC
:1026A0005812F801808F8830A0F4F586E486128EE7
:1026B000118E81E026960FB6F894DEBF0FBECDBF17
:1026C000DF91CF911F910F91FF90EF90DF90CF900E
:1026D000089580E0EFCF8F929F92AF92BF92CF92FA
:1026E000DF92EF92FF920F931F93CF93DF93CDB7BB
:1026F000DEB728970FB6F894DEBF0FBECDBF90911E
:102700006E05911115C018E0812F28960FB6F89428
:10271000DEBF0FBECDBFDF91CF911F910F91FF9014
:10272000EF90DF90CF90BF90AF909F908F900895E3
:1027300024E0F22E933311F098E0F92E6B01082F6C
:1027400080E591E00E9473019E012F5F3F4F590188
:10275000490110E0812F0E944F0DF40181934F0138
:102760008823C1F01F5FF112F5CFF12CF501919193
:102770005F019D3149F0983139F09A51923020F043
:10278000F3941F11F3CFBFCF60E170E08F2D0E9453
:102790001A0D1F2DE12EF12CF701EE0FFF1FE65A47
:1027A000FA4F1182108283EE93E00197F1F7402FE8
:1027B00070E060E0812F0E94C7056FEF812F0E94BB
:1027C000E405B601CD2889F480911F019091200184
:1027D00001968115F0EC9F0738F1909320018093CA
:1027E0001F0160911F0170912001812F0E94B2058D
:1027F00061E070E0812F0E941A0D27E02E9DC0013C
:102800002F9D900D11249C012E5D3A4F7901F90105
:1028100011821082812F0E944012F70193838283DC
:1028200016821582148270CF80E090ECD6CF0F9381
:102830001F93CF93DF93EC018B01888D883010F4C8
:102840000E94360DB80182E00E946B13888F883099
:1028500050F41D870C871A8E198E81E0DF91CF917D
:102860001F910F91089580E0F9CF0F931F93CF939D
:102870008C01FC016481758181E20E946B13C82F79
:102880008830F8F480E591E00E9473018C2F0E945B
:102890004F0D833131F08C2FCF911F910F910C94FC
:1028A0002A0D62E070E08C2F0E941A0DF8018481DD
:1028B0009581EC2FF0E0EE0FFF1FE65AFA4F91835F
:1028C0008083CF911F910F910895CF92DF92EF9265
:1028D000FF921F93CF93DF93EC017B016A018C85FC
:1028E000883048F40E94530D882319F08C850E948B
:1028F0002A0D88E08C87F70182819381A481B581BC
:102900000097A105B10551F490E080E0DF91CF91EF
:102910001F91FF90EF90DF90CF9008958F3F9F4FD2
:10292000AF4FBF4F89F370E060E081E20E946B130C
:10293000182F8C87883040F780E591E00E94730162
:10294000B7016E5F7F4F812F0E94AB05B601812FCB
:102950000E94960564E070E0812F0E941A0D0E948B
:1029600063046B017C018C850E94530D873111F14A
:102970008C3101F1882341F20E946304AB01BC0158
:102980004C195D096E097F098D859E85B0E0A0E038
:1029900084179507A607B70738F061E070E080E07C
:1029A00090E00E948003DFCF8C850E94360D88E086
:1029B0008C87AACF81E090E0A9CFEF92FF920F938E
:1029C0001F93CF93DF93CDB7DEB76B970FB6F89415
:1029D000DEBF0FBECDBF7B018A011C821B8288EE49
:1029E00093E0A0E0B0E08D839E83AF83B88788E456
:1029F00091E09A83898388E08D8788EE93E09F87B2
:102A00008E876AE973E0CE0140960E94EA0BB70117
:102A1000CE0140960E94960B61EB73E00E94800B02
:102A2000B8010E94960B63EB73E00E94800BBC011F
:102A3000CE0146960E94E10BCE0146960E94500CB4
:102A4000CE0140960E94500C85E893E0998B888BCC
:102A500080912E0690912F06A0913006B0913106FC
:102A60008A8B9B8BAC8BBD8B40E550E0BE01605FD9
:102A70007F4FCE0101960E94651462ED73E0892BB1
:102A800049F16AEA73E0CE0140960E94EA0BB70171
:102A9000CE0140960E94960B61EB73E00E94800B82
:102AA000B8010E94960B63EB73E00E94800BBC019F
:102AB000CE0101960E94C30ACE0140960E94500C9E
:102AC000CE0101960E94AD0ACE0101960E94AB0D87
:102AD0006DEB73E0CE0140960E94EA0BCE0140966A
:102AE0000E94500C6B960FB6F894DEBF0FBECDBFA0
:102AF000DF91CF911F910F91FF90EF900895CF93A9
:102B0000DF9300D0CDB7DEB722E030E0AE014F5FFB
:102B10005F4F66E270E00E94A51089819A81982734
:102B2000892798270F900F90DF91CF9108954F92AA
:102B30005F927F928F929F92AF92BF92CF92DF92DD
:102B4000EF92FF920F931F93CF93DF9300D0CDB7F7
:102B5000DEB7782E6B017A01882E912C47E0849F96
:102B6000F0011124EE5DFA4F0081118180E591E0C2
:102B70000E9473010E151F05BCF4872D0E947F155E
:102B80008C01872D0E947F1580179107C9F787E078
:102B9000889DF001899DF00D1124EE5DFA4F86812C
:102BA000081B1109118300830115110519F5872DE3
:102BB0000E944F0D843159F0882349F001E010E064
:102BC0008C3111F410E000E0119501951109C80154
:102BD0000F900F90DF91CF911F910F91FF90EF9089
:102BE000DF90CF90BF90AF909F908F907F905F903D
:102BF0004F900895E016F1060CF4870187E0889D58
:102C0000F001899DF00D1124EE5DFA4FE280F38012
:102C1000C114D10451F1270187E05822872D0E9469
:102C20006905840D951D20916E05273309F453C065
:102C30009801240D351D2130384008F44CC020E0A7
:102C400038E05901A418B508A501B6010E94720C1C
:102C5000CA0CDB1CC8018A199B095C01872D0E94E4
:102C60006905A501B6010E94720CE00EF11E87E015
:102C7000889DF001899DF00D1124EE5DFA4FF382DD
:102C8000E28220813181201B310B318320838681B8
:102C9000800F912F911D8A3F910510F4232BE9F4A9
:102CA00087E0889DF001899DF00D1124EE5DFA4FBB
:102CB0001682F982EA8222E030E0AE014F5F5F4F78
:102CC00068E270E0872D0E94850560E470E0872D42
:102CD0000E941A0D7CCFA801C5CF868378CFCF93F1
:102CE000DF93FC01218D328D2115310529F48FEF01
:102CF0009FEFDF91CF910895EC01808D421753072C
:102D000008F0A9010E9497151816190684F7298D55
:102D10003A8D281B390B3A8F298FEBCF0F931F93D6
:102D2000CF93DF931F92CDB7DEB7FC01218D328D9B
:102D3000232B41F48FEF9FEF0F90DF91CF911F91E5
:102D40000F9108958C0141E050E0BE016F5F7F4F0D
:102D5000FC01808D0E949715181619065CF7F80182
:102D6000818D928D0197928F818F898190E0E4CF40
:102D7000CF93DF931F92CDB7DEB741E050E0BE01A5
:102D80006F5F7F4FFC0184850E9497151816190606
:102D900034F4898190E00F90DF91CF9108958FEF07
:102DA0009FEFF9CFFC018485883010F40C949715BF
:102DB00090E080E00895EF92FF921F93CF93DF930E
:102DC000E82EF12C97E0899FF0011124EE5DFA4F77
:102DD000C081D1812097E1F4182F80E591E00E9415
:102DE00073018E2D0E947F15EC01812F0E947F15AB
:102DF0008C179D07C9F787E08E9DF0018F9DF00D20
:102E00001124EE5DFA4F8681C81BD109D183C0839E
:102E1000CE01DF91CF911F91FF90EF9008959F9287
:102E2000AF92BF92CF92DF92EF92FF920F931F93D8
:102E3000CF93DF93EC017B0180916E05811121C05E
:102E40001B821A8288EE93E0A0E0B0E08C839D8321
:102E5000AE83BF8388E491E09983888388E08C8780
:102E600088EE93E09E878D87CE01DF91CF911F91F1
:102E70000F91FF90EF90DF90CF90BF90AF909F9019
:102E8000089534E0932E833311F028E0922E8AE5E2
:102E9000C82E85E0D82E10E098E0B92EA12CD601DE
:102EA0002D913D916D01F701848195812817390796
:102EB00091F4812F0E94530D082F873111F08C312E
:102EC00039F5812F0E94DB16892B59F50C3119F445
:102ED000812F0E942A0D1F5F9112E1CFA11008C01F
:102EE000D701ED91FC910084F185E02DC701099592
:102EF0001B821A8288EE93E0A0E0B0E08C839D8371
:102F0000AE83BF8388E491E099838883BC86A8CF91
:102F1000843149F08111DFCFF6013297118210829E
:102F2000DACFB12ED8CFAA24A394D5CF8F929F9277
:102F3000AF92BF92CF92DF92EF92FF920F931F93C7
:102F4000CF93DF93CDB7DEB72F970FB6F894DEBFE0
:102F50000FBECDBF5C014B017A0180916E058823C5
:102F6000C9F104E0833309F008E0B501CE01019610
:102F70000E940F178AE5C82E85E0D82E10E0F601D2
:102F8000219131916F01F5018481958128173907CD
:102F900051F4812F0E94530D873129F4A701B40108
:102FA000812F0E9496111F5F0113E9CFC7012F9651
:102FB0000FB6F894DEBF0FBECDBFDF91CF911F914A
:102FC0000F91FF90EF90DF90CF90BF90AF909F90C8
:102FD0008F900895F12CE12CE9CFFC018485883095
:102FE00010F40C94DB1690E080E008950F931F938B
:102FF000CF93DF9300D0CDB7DEB7FC012485283016
:10300000E0F48C0180E591E00E94730122E030E061
:10301000AE014F5F5F4F60E170E0F80184850E9470
:10302000A51089819A819827892798270F900F905A
:10303000DF91CF911F910F91089590E080E0F6CF3E
:103040000F931F93CF93DF9300D0CDB7DEB7FC0172
:1030500024852830E0F48C0180E591E00E94730122
:1030600022E030E0AE014F5F5F4F64E070E0F801B6
:1030700084850E94A51089819A819827892798279D
:103080000F900F90DF91CF911F910F91089590E0D5
:1030900080E0F6CF0F931F93CF93DF93CDB7DEB7CA
:1030A00028970FB6F894DEBF0FBECDBF8C01D801B4
:1030B00059964D915C915A974115510551F0ED91FA
:1030C000FC91048CF58DE02D70E060E0C80109955D
:1030D000EECFF801808D0E94DB16892BB1F148E01C
:1030E00050E0BE016F5F7F4FD80158968C910E94CF
:1030F000971518161906F4F4D801509684E0FE01CD
:10310000319601900D928A95E1F78D8190E0982F8C
:1031100088272E81820F911DF801958B848B8F81DA
:10312000282F30E0322F22278885820F932F911D80
:10313000928F818F28960FB6F894DEBF0FBECDBF59
:10314000DF91CF911F910F91089590E080E0F2CF31
:103150004F925F926F927F928F929F92AF92BF92A7
:10316000CF92DF92EF92FF920F931F93CF93DF9353
:10317000CDB7DEB763970FB6F894DEBF0FBECDBFF5
:103180007C016B013A01FB0120E090E080E06AE005
:103190003191332309F461C040ED430F4A3008F008
:1031A0004DC0689FA001699F500D1124CA01C097AE
:1031B000830F911D37FD9A958F3F910549F340F399
:1031C000F70142815381648175818091F30590916B
:1031D000F405A091F505B091F605481759076A075F
:1031E0007B0709F40DC28701085F1F4F0E9463042B
:1031F0006F7077277C5FC8010E941714813009F037
:1032000004C285E893E09A838983F70182819381E0
:10321000A481B5818B839C83AD83BE8345E350E05D
:10322000BE016F5F7F4FC8010E943706892BA9F549
:10323000D12CC12CC8010E94420D17C03E3209F0AA
:10324000BFCF233009F4BCCFD301A20FB11D12961A
:103250008C932F5F90E080E09BCF233009F0B0CFBC
:10326000F3018583CC24C394D12CC60163960FB699
:10327000F894DEBF0FBECDBFDF91CF911F910F91AC
:10328000FF90EF90DF90CF90BF90AF909F908F9086
:103290007F906F905F904F9008950E946304F701B4
:1032A0007783668342E050E0B7016A5F7F4FC801D1
:1032B0000E94061281E090E09A83898342E050E008
:1032C000BE016F5F7F4FC8010E94061280E091E04F
:1032D0009A83898342E050E0BE016F5F7F4FC8014F
:1032E0000E9406121A82198242E050E0BE016F5F0E
:1032F0007F4FC8010E94061242E050E0BE016F5F9E
:103300007F4FC8010E94061242E050E0BE016F5F8D
:103310007F4FC8010E9406125601F6018081882362
:1033200001F16501F60181912F01882311F08E32A0
:10333000B1F446018A189B081814190474F48D8698
:1033400041E050E0BE01635F7F4FC8010E9406125A
:10335000A401B501C8010E9406125201DECF62012C
:10336000E1CF1D8641E050E0BE01635F7F4FC801A1
:103370000E940612C12CDD24D394DA82C98242E075
:1033800050E0BE016F5F7F4FC8010E940612DA82D3
:10339000C98242E050E0BE016F5F7F4FC8010E94CA
:1033A0000612C8010E94E40D892B09F441CFF3E015
:1033B000AF2EB12C230122E0420E511CD4C0F701E4
:1033C0004281538164817581808D918DA28DB38DF1
:1033D000481759076A077B0709F008C1848D958D46
:1033E000C59709F003C181A192A15DEFC52EDD242F
:1033F000DA940C970CF4ADC04CE050E0BE016F5F66
:103400007F4FC8010E946F168B819C819827892766
:1034100098279A8B898BF7014681578129813A81B8
:103420004217530709F0E7C097FFE5C08F7092700D
:103430003BEFC32EDD24DA94892B09F08AC06F801C
:1034400078847624672476242AEFC22EDD24DA9449
:103450006114710409F47DC0D12CC12C8D819E8131
:10346000982789279827C816D906F8F441E050E034
:10347000BE01635F7F4FC8010E946F164D854423D4
:1034800031F050E070E060E0C8010E946F168D8559
:103490008111ECCF44E050E070E060E0C8010E9490
:1034A0006F16FFEFCF1ADF0AD9CF912C812C41E0A4
:1034B00050E0BE016D5E7F4FC8010E946F164B89C0
:1034C000842F807C09F06CC0442331F050E070E020
:1034D00060E0C8010E946F168B898111E8CF42E03D
:1034E00050E0BE01615F7F4FC8010E946F1642E04D
:1034F00050E0BE01635F7F4FC8010E946F1644E039
:1035000050E070E060E0C8010E946F1642E050E0B9
:10351000BE016F5E7F4FC8010E946F168F8598892C
:1035200049895A898115914009F043C0CD84DE84D0
:10353000DC24CD24DC2481E0C816D104D1F541156A
:10354000544009F04AC044E050E0B201C8010E9472
:103550006F1621E0A21AB10809F46CCEFFEFCF1666
:10356000DF0609F067CE0E9463043B014C01C801ED
:103570000E944A18181619060CF421CF0E94630401
:103580006619770988099909693873418105910598
:1035900048F562E370E080E090E00E948003E7CFAE
:1035A00041E050E070E060E0C8010E946F161B8AA5
:1035B00093CF54274527542770E060E0C8010E944C
:1035C0006F16FFEF8F1A9F0A6814790409F06FCF06
:1035D00096EFC92EDD24DA94BCCFE7EFCE2EDD24A2
:1035E000DA94B7CFCC24CA94DC2CB3CF6EEFC62EBE
:1035F000DD24DA94AECF4CEFC42EDD24DA94A9CFCB
:103600008EEFC82EDD24DA9430CED12CC12C2DCEF5
:10361000CF92DF92EF92FF920F931F93CF93DF939E
:10362000CDB7DEB7AF970FB6F894DEBF0FBECDBFF4
:103630007C016A0105E813E01A8309831C861B8656
:1036400088EE93E0A0E0B0E08D879E87AF87B88BCF
:1036500086E791E09A878987188F0F8B198E1A8ECB
:103660001B8E1C8E88E089A31BA70AA71CA61DA67B
:103670001EA61FA68091E7059091E805A091E90597
:10368000B091EA058EA39FA3A8A7B9A78B839C83BB
:10369000AD83BE8318861F82AE01465D5F4FCE01AB
:1036A00001960E94A81881309105B1F4D701ED91DF
:1036B000FC910488F589E02D1DA30CA38CA59DA584
:1036C000AEA5BFA58EA39FA3A8A7B9A7A601BE01BB
:1036D0006C5D7F4FC7010995AF960FB6F894DEBFBA
:1036E0000FBECDBFDF91CF911F910F91FF90EF9053
:1036F000DF90CF900895CF92DF92EF92FF920F93D9
:103700001F93CF93DF93CDB7DEB7AF970FB6F89483
:10371000DEBF0FBECDBF8C016B017A0185E893E05F
:103720009A8389831B821C821D821E821C861B86B3
:1037300048EE53E060E070E04D875E876F87788BDE
:1037400026E731E03A872987988F8F8B198E1A8E5A
:103750001B8E1C8E28E029A39BA78AA71CA61DA64A
:103760001EA61FA6D8011C968C91883060F40E947A
:10377000530D882321F0F80184850E942A0D88E0EA
:10378000D8011C968C938091E7059091E805A09153
:10379000E905B091EA058EA39FA3A8A7B9A78B83DB
:1037A0009C83AD83BE8318861F82AE01465D5F4F4A
:1037B000B601CE0101960E94A8180097C1F0D80169
:1037C000ED91FC910684F785E02D85E893E09DA3BB
:1037D0008CA38CA59DA5AEA5BFA58EA39FA3A8A7CE
:1037E000B9A7A701BE016C5D7F4FC8010995AF96CF
:1037F0000FB6F894DEBF0FBECDBFDF91CF911F9102
:103800000F91FF90EF90DF90CF900895EF92FF928D
:103810000F931F93CF93DF9300D000D0CDB7DEB7C7
:103820008C017B01FB0184858830A8F085E893E05A
:10383000F801918380831282138214821582C80159
:103840000F900F900F900F90DF91CF911F910F91DC
:10385000FF90EF90089580E591E00E94730124E0CD
:1038600030E0AE014F5F5F4F6CE070E0F7018485A0
:103870000E94A51085E893E0F801918380838981F7
:103880009A81AB81BC8182839383A483B583D7CF94
:103890001F920F920FB60F9211248F939F938091D6
:1038A000E1009091E100937F9093E10083FF0FC0CE
:1038B0001092E90091E09093EB001092EC0092E3FB
:1038C0009093ED001092210598E09093F00082FF14
:1038D00022C093E09093E9009091F200992319F0AF
:1038E0009AE39093E80090911805992341F0909104
:1038F0001805915090931805911101C05D9A90910F
:103900002005992341F09091200591509093200536
:10391000911101C0289A84FF18C08091E2008E7E28
:1039200081608093E2008091E1008F7E8093E100CE
:10393000809119058E7E8061809319059F918F91EA
:103940000F900FBE0F901F90189580FFF7CF8091BA
:10395000E2008E7E80618093E2008091E1008E7EA5
:103960008093E100809119058E7E8160E5CF1F92E2
:103970000F920FB60F921124CF92DF92EF92FF9227
:103980000F931F932F933F934F935F936F937F9367
:103990008F939F93AF93BF93EF93FF93CF93DF9357
:1039A000CDB7DEB76C97DEBFCDBF1092E900809136
:1039B000E80083FF25C068E0CE0145960E948C0296
:1039C00082EF8093E8008D8987FF39C09091E800ED
:1039D00090FFFCCF982F907609F034C19E894F89D3
:1039E000588D2F89F88C911131C0803861F5809104
:1039F0001A058093F1001092F1008EEF8093E80099
:103A00006C960FB6F894DEBF0FBECDBFDF91CF919D
:103A1000FF91EF91BF91AF919F918F917F916F91A6
:103A20005F914F913F912F911F910F91FF90EF90D8
:103A3000DF90CF900F900FBE0F901F9018959EEFC4
:103A40009093E800C7CF1092F100D5CF913059F490
:103A50008111D3CF4130510581F680911A058D7FB8
:103A600080931A05CACF933049F48111C6CF4130F3
:103A7000510519F680911A058260F2CF953041F414
:103A80008091E80080FFFCCF20682093E300B5CF51
:103A9000963009F0A9C00B8D1C8D22E01092E90030
:103AA0001092160510921505F2122EC010921405F0
:103AB000109213050E94AD021F8299E09983FA8249
:103AC00091E09E8390EA98879AEF99872091150557
:103AD00030911605275F3F4F3C832B838D831092D7
:103AE000E900109216051092150510931405009325
:103AF000130549E050E0BE016F5F7F4F80E00E94F8
:103B000050020E94AD0279CF109314050093130563
:103B10000E949902DC0112960D911C91011511056C
:103B200009F451C1D801ED91FC910480F581E02D9B
:103B3000BE016B5E7F4FC8010995009709F03EC139
:103B4000F80100851185EACFF3E0FF120EC08F89DE
:103B5000882309F440C0823061F440E860E18EE9D6
:103B600091E00E94F61F811148CF81E28093EB0023
:103B700047CF813029F440E86BE082E991E0F1CF52
:103B8000833099F70E949902DC011296ED90FC9027
:103B90008E010F5F1F4F6801E114F10479F0D70126
:103BA000ED91FC910680F781E02DB801C7010995E0
:103BB000080F111DF701E084F184EECFD8011C92AB
:103BC000F60101900020E9F73197BF016C197D09DA
:103BD00040E0C601C6CF6CE771E0FB01449150E0C4
:103BE00080E80E94500209CF973009F4BECF983088
:103BF00021F481E08093F10000CF993009F0FDCEEF
:103C0000837009F0B2CFE1E0F1E081E031E096E3CA
:103C10002191222371F08093E9003093EB00DF01C2
:103C200011972C912093EC009093ED008F5F8730DB
:103C300079F78EE78093EA001092EA008F898093EB
:103C40002105DBCE8B8D9C8D1092E900109216051C
:103C5000109215059093140580931305898D811199
:103C600092C08E899D89913A49F4813209F07DCFC5
:103C700047E050E067E171E080E0B3CF913209F0B6
:103C800074CF833269F48F89988DB0E0A0E080937F
:103C9000070190930801A0930901B0930A01ADCEEA
:103CA000803269F48091E80082FFFCCF67E087E111
:103CB00091E00E948C028BEF8093E8009ECE8232CE
:103CC00009F09BCE8F8980931E01EEEFFFE785916F
:103CD00094918B3F9C4D51F1E0E0F8E08091170109
:103CE00090911801A0911901B0911A01803B944064
:103CF000A105B105F1F480911E0180FD1AC0EE3FCF
:103D00008AE0F80789F587E797E7918380838091B8
:103D100060008093170588E19BE00FB6F894A895A2
:103D2000809360000FBE9093600067CEEEEFFAE0E4
:103D3000D5CF808191818737974709F05ECEA895CE
:103D40008091600088618093600080911705809366
:103D50006000EE3F2AE0F20789F08091FE0A909120
:103D6000FF0A9183808349CE8081918187379807AC
:103D700051F29093FF0A8093FE0AC5CF1092FF0A7A
:103D80001092FE0A3ACE0E949902DC0112960D9121
:103D90001C910115110509F4E8CED801ED91FC91B3
:103DA0000190F081E02DBE016B5E7F4FC801099547
:103DB000811123CEF80100851185EBCF1816190665
:103DC0000CF41BCED2CEF1E0FF12BECE60E871E063
:103DD00004CF1F920F920FB60F9211242F933F938F
:103DE0008F939F93AF93BF938091FF0490910005B1
:103DF000A0910105B09102053091FE0423E0230F4C
:103E00002D3758F50196A11DB11D2093FE04809316
:103E1000FF0490930005A0930105B09302058091E3
:103E2000030590910405A0910505B0910605019642
:103E3000A11DB11D8093030590930405A093050572
:103E4000B0930605BF91AF919F918F913F912F91B4
:103E50000F900FBE0F901F90189526E8230F029623
:103E6000A11DB11DD2CF1F920F920FB60F92112438
:103E70002F933F934F935F936F937F938F939F9372
:103E8000AF93BF93EF93FF93E0911301F09114016F
:103E90000995FF91EF91BF91AF919F918F917F9184
:103EA0006F915F914F913F912F910F900FBE0F90A7
:103EB0001F9018951F920F920FB60F9211242F93F7
:103EC0003F934F935F936F937F938F939F93AF93A2
:103ED000BF93EF93FF93E0911101F09112010995C7
:103EE000FF91EF91BF91AF919F918F917F916F91D2
:103EF0005F914F913F912F910F900FBE0F901F90A8
:103F000018951F920F920FB60F9211242F933F9383
:103F10004F935F936F937F938F939F93AF93BF93D1
:103F2000EF93FF93E0910F01F09110010995FF913C
:103F3000EF91BF91AF919F918F917F916F915F9121
:103F40004F913F912F910F900FBE0F901F9018959A
:103F50001F920F920FB60F9211242F933F934F93FE
:103F60005F936F937F938F939F93AF93BF93EF93E1
:103F7000FF93E0910D01F0910E010995FF91EF91F2
:103F8000BF91AF919F918F917F916F915F914F9171
:103F90003F912F910F900FBE0F901F9018951F9279
:103FA0000F920FB60F9211242F933F934F935F936D
:103FB0006F937F938F939F93AF93BF93EF93FF93F1
:103FC000E0910B01F0910C010995FF91EF91BF91E8
:103FD000AF919F918F917F916F915F914F913F91A1
:103FE0002F910F900FBE0F901F901895EF92FF9298
:103FF0000F931F93CF93DF93F82E192FE62E042FE4
:1040000081E0860F880F0E94220283E00E94220234
:10401000CF2DD12FEC0EFD2EF11CCE15DF05B9F002
:1040200007FF13C0FE0184910E942202182F80E036
:104030000E942202812321968111EFCFDF91CF913F
:104040001F910F91FF90EF9008958881EDCF81E04F
:10405000F5CFCF93DF93109274051092730588EE1D
:1040600093E0A0E0B0E08093750590937605A0936F
:104070007705B093780587E693E090937205809377
:1040800071058FEF9FEF90937E0580937D0585E806
:1040900093E09093C2058093C1051092C3051092DE
:1040A000C4051092C5051092C6059093C80580936B
:1040B000C7051092C9051092CA051092CB0510923F
:1040C000CC059093CE058093CD051092CF0510922C
:1040D000D0051092D1051092D2059093D40580930B
:1040E000D3051092D5051092D6051092D7051092DF
:1040F000D8059093DA058093D9051092DB051092CC
:10410000DC051092DD051092DE059093E0058093AA
:10411000DF051092E1051092E2051092E30510927E
:10412000E4059093EC058093EB051092ED05109259
:10413000EE051092EF051092F0059093E60580933E
:10414000E5051092E7051092E8051092E905109236
:10415000EA059093F2058093F1051092F305109211
:10416000F4051092F5051092F6059093F8058093EA
:10417000F7051092F9051092FA051092FB051092BE
:10418000FC0510920B0680910306811113C010925A
:10419000FE051092FD0588E292E090930006809360
:1041A000FF0586E390E0909302068093010681E08C
:1041B000809303060E943C08FC01A385B4851097F8
:1041C00009F090C08DEF95E094878387858596856B
:1041D0002091010630910206820F931F96878587F2
:1041E00010921D0610921C0689E793E090931B061F
:1041F00080931A0680911206811113C010920D0649
:1042000010920C068EE592E090930F0680930E06B6
:104210008FE290E0909311068093100681E08093E6
:1042200012060E943C08FC01A385B485109709F092
:1042300064C08CE096E0948783878585968520917D
:10424000100630911106820F931F96878587C5E867
:10425000D3E0D0934506C0934406109246061092D0
:104260004706109248061092490669E973E08EE30A
:1042700096E00E94EA0B69E973E088E396E00E9409
:10428000EA0BD0933306C093320620EC2093340619
:1042900098EA9093350682E08093360631EB3093AE
:1042A0003706D0932D06C0932C0620932E069093AC
:1042B0002F068093300684E68093310610922906FB
:1042C000109228068BE893E09093270680932606A9
:1042D00080E590E090932B0680932A06DF91CF91A2
:1042E0000895DC018D919C9111970097D1F78DEF86
:1042F00095E08D939C936ACFDC018D919C911197F1
:104300000097D1F78CE096E08D939C9396CFCF9356
:10431000DF93CDB7DEB7CB54D1090FB6F894DEBF2B
:104320000FBECDBF789484B5826084BD84B58160B2
:1043300084BD85B5826085BD85B5816085BD809170
:104340006E00816080936E001092810080918100E8
:1043500082608093810080918100816080938100E0
:1043600080918000816080938000809191008260C4
:104370008093910080919100816080939100809161
:1043800090008160809390008091C1008460809350
:10439000C1008091C10082608093C1008091C10002
:1043A00081608093C1008091C30081608093C300CD
:1043B0008091C00082608093C0008091C2008160C3
:1043C0008093C20080917A00846080937A0080910B
:1043D0007A00826080937A0080917A008160809375
:1043E0007A0080917A00806880937A00109221058B
:1043F00010921A05109219058091D7008160809360
:10440000D70080EA8093D80089B5806189BD89B5DD
:10441000826089BD09B400FEFDCF61E070E080E0FC
:1044200090E00E9480038091D8008F7C806180930F
:10443000D8008091E000807F8093E0008091E100CF
:104440008E7E8093E1008DE08093E200559A209A61
:1044500082E080931B0562E083E00E942A0362E011
:1044600082E00E942A0310921D0510921C0587EA23
:1044700096E090930C0180930B01809169008C7FF2
:10448000826080936900E89A64EE73E0CE01409602
:104490000E94EA0B60ED73E0CE0146960E94EA0BA3
:1044A000AE01405F5F4FBE016A5E7F4FCE01019655
:1044B0000E94DD14CE0101960E94500CCE0146965A
:1044C0000E94500CCE0140960E94500C8AE08093CE
:1044D000210185E893E09A83898380913406909145
:1044E0003506A0913606B09137068B839C83AD8349
:1044F000BE83CE0101960E94780EE0916E05E353D3
:10450000E53030F4F0E0E456FE4F8081811107C0C1
:1045100061E070E080E090E00E948003F9CF86E2E5
:1045200096E00E9435146DEF73E0CE0140960E9434
:10453000EA0B60ED73E0CE0146960E94EA0BAE01F5
:10454000405F5F4FBE016A5E7F4FCE0101960E94C1
:10455000DD14CE0101960E94500CCE0146960E94B9
:10456000500CCE0140960E94500CBB24B39430E016
:10457000832E30E0932E80911D0590911C05891BA0
:1045800087FD805F882309F44FC00E948906FC01E3
:10459000EE0FFF1FE955FE4F608171816D3C710583
:1045A00031F420911F05222369F010921F05803EEF
:1045B0009105D1F1803F910561F08AE196E00E947A
:1045C000500932C0B0921F05F2CF8FEFE816F10408
:1045D00041F40E9489067C0180EFE816F104A9F7F6
:1045E000F8CFF701EE0FFF1FE955FE4FD0806D2D7C
:1045F0008AE196E00E94100984E1E816F10441F096
:104600007CF481E1E81AF10882E0E816F10460F434
:104610006D2D8AE196E00E9410090E94890604C06F
:1046200089E5E816F104A1F366E276E0CE01019691
:104630000E940F178D85883008F0AEC150E040E031
:1046400069E973E088E396E00E94A90BEE24E39405
:10465000CE0101960E94890D882361F1CE01019659
:104660000E94ED17892BA1F3CE0101960E94B81686
:10467000182F80911E05882309F4E3C1103209F038
:10468000E0C110921E0580911E05882371F01F3332
:1046900009F4E0C1188B198A41E050E0BE01605F67
:1046A0007F4F88E396E00E94420B1A3009F0CFC199
:1046B000EE2061F264E174E0CE0146960E94EA0BBE
:1046C00068E376E0CE0146960E94960BBC01CE01CF
:1046D00040960E94E10BCE0140960E94500CCE0104
:1046E00046960E94500C68E376E0CE018A5B9F4FAD
:1046F0000E94E10B6FE274E0CE0140960E94EA0B4B
:10470000BE01605F7F4FCE018A5B9F4F0E94EA0A25
:104710007C01CE0140960E94500C61E374E0CE0112
:1047200040960E94EA0BBE01605F7F4FCE018A5B1C
:104730009F4F0E94EA0A6C01CE0140960E94500CE5
:10474000960121503109A7014E5F5F4FBE016A5BA0
:104750007F4FCE01805C9F4F0E94FB0B61E374E0B2
:10476000CE0140960E94EA0BBE01605F7F4FCE01F2
:104770008A5B9F4F0E94EA0A7C01CE0140960E940C
:10478000500C63E374E0CE0140960E94EA0BBE0138
:10479000605F7F4FCE018A5B9F4F0E94EA0A6C01E7
:1047A000CE0140960E94500C960121503109A7017C
:1047B0004E5F5F4FBE016A5B7F4FCE01CA960E947B
:1047C000FB0B63E374E0CE0140960E94EA0BBE014E
:1047D000605F7F4FCE018A5B9F4F0E94EA0A7C0197
:1047E000CE0140960E94500C60E974E0CE014096E4
:1047F0000E94EA0BBE01605F7F4FCE018A5B9F4F34
:104800000E94EA0A6C01CE0140960E94500C96016B
:1048100021503109A7014E5F5F4FBE016A5B7F4F98
:10482000CE01C4960E94FB0BBE016C5C7F4FCE0193
:1048300082960E94E10BBE01665C7F4FCE01889696
:104840000E94E10BBE01605C7F4FCE018E960E94FC
:10485000E10B65E374E0CE0182960E94050B88238C
:1048600009F4FAC010922006109221061092220636
:1048700010922306109224061092250610921E060E
:104880008EE196E00E94AE08CE018E960E94500CFA
:10489000CE0188960E94500CCE0182960E94500C48
:1048A000BE01605C7F4FCE0140960E94E10B6DE23D
:1048B00074E0CE0140960E94800BBE01665C7F4F83
:1048C0000E94960B6DE274E00E94800BBE016C5C4E
:1048D0007F4F0E94960BBC018EE396E00E94CA0BAC
:1048E000CE0140960E94500C65E574E0CE014096E2
:1048F0000E94EA0BCE01C4960E94500CCE01CA96CB
:104900000E94500CCE01805C9F4F0E94500CCE0143
:1049100040960E94500CCE018A5B9F4F0E94500C23
:1049200068E574E0CE0101960E94B10A68E674E081
:10493000CE0101960E94B10A60E874E0CE010196B2
:104940000E94B10ACE0101960E94AD0A62E974E0AC
:10495000CE0101960E94B10A62EA74E0CE0101968E
:104960000E94B10A69EA74E0CE0101960E94B10A80
:104970006EEA74E0CE0101960E94B10ACE01019662
:104980000E94AB0D66EB74E0CE0140960E94EA0BEC
:10499000CE0140960E94500C80911F05882309F497
:1049A00049C063E670E080E090E00E94580C6F5FC1
:1049B0007F4F8F4F9F4F633071050CF039C163E615
:1049C00070E080E090E00E94580C6F5F7F4F8F4F47
:1049D0009F4F9B01653571050CF0F8C068EB7BE0DB
:1049E00080E090E00E94580C6854744F8F4F9F4FA6
:1049F0006B01770FEE08FF082AE0B701A601F7FE6A
:104A00000DC06DE28AE196E00E94B809442755275F
:104A1000BA014C195D096E097F092AE08AE196E026
:104A20000E94170A8AE196E00E94AD0AC701B6010A
:104A30000E9480038114910409F49DCD0E9400001E
:104A400094CD1F3309F01FCEB0921E051CCE1D3031
:104A500009F4FECDE12CFCCD61E474E0CE01829638
:104A60000E94050B882369F1CE018E960E94DF0A11
:104A70008AE196E00E945009BE01625D7F4FCE013F
:104A800046960E94E10BBE016E5D7F4FCE014096BF
:104A90000E94E10BAE014A5E5F4FBE01605F7F4F37
:104AA000CE014C960E94DD14CE014C960E94500C13
:104AB000CE0140960E94500CCE0146960E94500CAA
:104AC000E3CE66E474E0CE0182960E94050B882353
:104AD00049F0CE018E960E94DF0A8AE196E00E949C
:104AE0001009D2CE6CE374E0CE0182960E94050BD1
:104AF0008823C9F0CE018E960E94DF0A6B017C01EB
:104B0000CE0188960E94DF0AC114D104E104F104A9
:104B100031F4611571058105910509F4B5CE8C2D2F
:104B20000E94BB08B1CE6FE374E0CE0182960E9472
:104B3000050B882341F080910B0680FDA5CE81E016
:104B40000E94D808A1CE64E474E0CE0182960E944F
:104B5000050B882369F080910B0680FF95CE982F76
:104B60009E7F80FF91CE90930B0660E080E0D8CFCF
:104B70006AE474E0CE0182960E94050B882331F02E
:104B800080910B0681FD80CE82E0DACF6FE474E085
:104B9000CE0182960E94050B882349F080910B0676
:104BA00081FF72CE982F9D7F81FDDDCF6DCECE012E
:104BB0008E960E94DF0A8AE196E00E945009CE019B
:104BC00088960E94DF0A0E94800383CFAB0145557F
:104BD00051094A30510558F460EB76E380E090E0EB
:104BE0000E94580C6059784E8F4F9F4F01CF6F55E0
:104BF00071096330710558F460E27EE480E090E072
:104C00000E94580C605E714B8F4F9F4FF1CE70E049
:104C100060E0233631050CF4EBCE60E573EC80E008
:104C200090E00E94580C605C73468F4F9F4FE0CE1F
:104C300066E970E080E090E00E94580C6E5C7F4F67
:104C40008F4F9F4F0E94800366E070E080E090E00D
:104C50000E94580C6B0177FD06C06230710544F06C
:104C600066307105CCF1D0921601C0921501E2CEEA
:104C7000F601EF55FE4F7080672D8AE196E00E94A5
:104C8000500966E470E080E090E00E94580C6E5C91
:104C90007F4F8F4F9F4F0E948003672D8AE196E0E0
:104CA0000E94100969E170E080E090E00E94580CD9
:104CB0002B013C0169E170E080E090E00E94580C1B
:104CC000262FC301B201615F7F4F8F4F9F4F8FE04F
:104CD000820F0E94BB08C7CF2091150130911601A9
:104CE0006217730709F4BFCFF601EF55FE4F7080CE
:104CF000672D8AE196E00E94500966E470E080E04A
:104D000090E00E94580C6E5C7F4F8F4F9F4F0E9427
:104D10008003672D8AE196E00E941009A4CF88E302
:104D200096E00E94500C8EE396E00C94500C8F920B
:104D30009F92AF92BF92CF92DF92EF92FF92CF936A
:104D4000DF93EC01688179818A819B81611571050E
:104D50008105910521F464E279ED8BE597E02DE181
:104D600033EF41E050E00E94772749015A019B014F
:104D7000AC01A7EAB1E40E9496276B017C01ACEE7E
:104D8000B4EFA50194010E94A427C60ED71EE81E09
:104D9000F91EF7FE06C081E0C81AD108E10880E8D4
:104DA000F80AC882D982EA82FB82C701B6019F77DE
:104DB000DF91CF91FF90EF90DF90CF90BF90AF90B9
:104DC0009F908F9008958F929F92AF92BF92CF92B3
:104DD000DF92EF92FF9260912801709129018091FA
:104DE0002A0190912B01611571058105910521F42E
:104DF00064E279ED8BE597E02DE133EF41E050E09F
:104E00000E94772749015A019B01AC01A7EAB1E44E
:104E10000E9496276B017C01ACEEB4EFA5019401D2
:104E20000E94A427C60ED71EE81EF91EF7FE06C074
:104E300081E0C81AD108E10880E8F80AC092280188
:104E4000D0922901E0922A01F0922B01C701B6010C
:104E50009F77FF90EF90DF90CF90BF90AF909F90A3
:104E60008F900895609328017093290180932A01FF
:104E700090932B0108951F93FC0199278827BC016B
:104E8000E89411911032E9F3193010F01E30C8F394
:104E90001B3251F01D3249F4689406C00E9462270B
:104EA000610F711D811D911D119110531A30B0F3C6
:104EB0003EF490958095709561957F4F8F4F9F4FF1
:104EC0001F910895592F482F372F262F660F771FD0
:104ED000881F991F660F771F881F991F620F731F06
:104EE000841F951F660F771F881F991F0895052E31
:104EF00097FB1EF400940E948E2757FD07D00E9456
:104F0000E02707FC03D04EF40C948E275095409573
:104F1000309521953F4F4F4F5F4F08959095809565
:104F2000709561957F4F8F4F9F4F08950E94022883
:104F3000A59F900DB49F900DA49F800D911D1124ED
:104F40000895B7FF0C9496270E949627821B930B17
:104F500008952F923F924F925F926F927F928F921D
:104F60009F92AF92BF92CF92DF92EF92FF920F93F8
:104F70001F93CF93DF93CDB7DEB7CA1BDB0B0FB602
:104F8000F894DEBF0FBECDBF09942A8839884888BF
:104F90005F846E847D848C849B84AA84B984C88455
:104FA000DF80EE80FD800C811B81AA81B981CE0F4C
:104FB000D11D0FB6F894DEBF0FBECDBFED01089531
:104FC000A1E21A2EAA1BBB1BFD010DC0AA1FBB1F0D
:104FD000EE1FFF1FA217B307E407F50720F0A21B7F
:104FE000B30BE40BF50B661F771F881F991F1A94EC
:104FF00069F760957095809590959B01AC01BD0116
:10500000CF010895A29FB001B39FC001A39F700D6F
:10501000811D1124911DB29F700D811D1124911DC0
:105020000895EE0FFF1F0590F491E02D09940F9362
:105030001F93CF93DF938230910510F482E090E0CC
:10504000E0914C06F0914D0630E020E0B0E0A0E0A9
:10505000309799F42115310509F44AC0281B390B02
:1050600024303105D8F58A819B816115710589F15C
:10507000FB0193838283FE0111C040815181028133
:10508000138148175907E0F04817590799F410970A
:1050900061F012960C93129713961C933296CF01DF
:1050A000DF91CF911F910F91089500934C061093BB
:1050B0004D06F4CF2115310551F04217530738F052
:1050C000A901DB019A01BD01DF01F801C1CFEF01A8
:1050D000F9CF90934D0680934C06CDCFFE01E20FA1
:1050E000F31F819391932250310939832883D7CFBD
:1050F00020914A0630914B06232B41F420912E013A
:1051000030912F0130934B0620934A0620912C01B9
:1051100030912D012115310541F42DB73EB7409155
:10512000300150913101241B350BE0914A06F0917A
:105130004B06E217F307A0F42E1B3F0B2817390785
:1051400078F0AC014E5F5F4F2417350748F04E0FE3
:105150005F1F50934B0640934A06819391939FCFD4
:10516000F0E0E0E09CCFCF93DF930097E9F0FC0103
:10517000329713821282A0914C06B0914D06ED0138
:1051800030E020E01097A1F420813181820F931F3D
:1051900020914A0630914B062817390709F061C063
:1051A000F0934B06E0934A06DF91CF910895EA0110
:1051B000CE17DF07E8F54A815B819E014115510555
:1051C000B1F7E901FB83EA8349915991C40FD51FD7
:1051D000EC17FD0761F4808191810296840F951F81
:1051E000E90199838883828193819B838A83F0E09C
:1051F000E0E012968D919C9113970097B9F52D914F
:105200003C911197CD010296820F931F20914A067F
:1052100030914B062817390739F6309751F510921F
:105220004D0610924C06B0934B06A0934A06BCCF95
:10523000D383C28340815181840F951FC817D9073A
:1052400061F44E5F5F4F88819981480F591F5183E8
:1052500040838A819B81938382832115310509F0E4
:10526000B0CFF0934D06E0934C069ECFFD01DC01DC
:10527000C0CF13821282D7CFB0E0A0E0E2E4F9E21F
:105280000C94AB278C01009751F4CB010E94172896
:105290008C01C801CDB7DEB7E0E10C94C727FC0153
:1052A000E60FF71F9C0122503109E217F30708F4BB
:1052B0009DC0D901CD91DC911197C617D70798F001
:1052C000C530D10530F3CE0104978617970708F350
:1052D000C61BD70B2297C193D1936D937C93CF01BB
:1052E0000E94B328D6CF5B01AC1ABD0A4C018C0ECC
:1052F0009D1EA0914C06B0914D06512C412CF12CD5
:10530000E12C109731F580914A0690914B06881553
:10531000990509F05CC04616570608F058C0809100
:105320002C0190912D01009741F48DB79EB74091CB
:10533000300150913101841B950BE817F90708F0F3
:1053400055C0F0934B06E0934A06F90171836083E0
:10535000A0CF8D919C91119712966C9012971396F5
:105360007C901397A815B90559F56C0142E0C40E5D
:10537000D11CCA14DB0420F1AC014A195B09DA0123
:105380001296159780F06282738251834083D9010F
:105390006D937C93E114F10471F0D7011396FC93A3
:1053A000EE93129776CF22968C0F9D1FF901918371
:1053B0008083F301EFCFF0934D06E0934C0669CF65
:1053C0004816590608F42C017D01D3019ACFCB0170
:1053D0000E9417287C01009749F0AE01B8010E9495
:1053E000F929C8010E94B328870153CF10E000E0DB
:1053F00050CFFB01DC0102C001900D9241505040A2
:10540000D8F70895DC0101C06D9341505040E0F79A
:105410000895FB01DC018D91019080190110D9F3F1
:10542000990B0895FB01DC0101900D920020E1F73A
:105430000895FB0151915523A9F0BF01DC014D9165
:1054400045174111E1F759F4CD010190002049F0D1
:105450004D9140154111C9F3FB014111EFCF81E09E
:1054600090E00197089511E0C8E4D1E004C0FE0186
:105470000E9411282196C934D107C9F7F894FFCFAB
:1054800000C18081000000FFFFFFFF6F046F046F09
:10549000046F046F04FFFF00E10000000000000043
:1054A000C00ADEADBEEFFEED0100000000004E06BA
:1054B000800001005E000000000000004307F107CB
:1054C000B6079B07000000002006EB118D11781134
:1054D000ED17B8168B1065147B1BD216AB0D890D1A
:1054E000FC09F909F7091506ED092018061CF6173D
:1054F000E90900000000E9050612050A7A017601B3
:105500008E167C1017142913420D3706081BE40D64
:105510004A186F16820672066E066A0601020000BD
:10552000037165727467660000CA000000C600C49B
:1055300000C200C300CD000000CB00C900C700C5F9
:1055400000B30060000000000086008100000080C1
:1055500000710031000000000000007A007300615B
:1055600000770032000000000063007800640065EE
:105570000034003300000000002000760066007454
:105580000072003500000000006E006200680067D5
:1055900000790036000000000000006D006A007510
:1055A0000037003800000000002C006B0069006F1D
:1055B0000030003900000000002E002F006C003B7E
:1055C0000070002D00000000000000270000005BBC
:1055D000002B0000000000C1008500B0005D00004D
:1055E00000000000000000000000000000000000BB
:1055F000000000B20000000000D5000000D800D27A
:1056000000000000000000D100D400D9000000D745
:1056100000DA00B1000000CC000000D6000000005D
:1056200000D30000000000000000000000C80000DF
:10563000000000000000000000000000000000006A
:10564000000000000000000000000000000000005A
:10565000000000000000000000000000000000004A
:10566000000000000000000000000000000000003A
:10567000000000000000000000000000000000002A
:10568000000000000000000000000000000000001A
:10569000000000000000000000000000000000000A
:1056A00000000000000000000000000000000000FA
:1056B00000000000000000000000000000000000EA
:1056C00000000000000000000000000000000000DA
:1056D00000000000000000000000000000000000CA
:1056E00000000000000000A5014D048702BB010876
:1056F00002C601E40100000000B809E408050A043C
:105700000A00000000630A00000000FF059617056C
:105710000A040A35145D0D0D0A004D616B696E6750
:1057200020726571756573743A20474554202F3F88
:10573000003D0020485454502F312E3000436C69F6
:10574000656E74207265717565737420656E64652D
:105750006400636F6E6E656374696F6E2066616965
:105760006C6564006B6579626F6172643220696E8A
:10577000697469616C697A65642E2E2E00417264C9
:1057800075696E6F45746865726E65745374617285
:10579000746564004D616B696E6720616E73776537
:1057A0007220666F72207265717565737420007265
:1057B0000070006D00616C6C6F6666006D76006253
:1057C000316F6E0062316F66660062326F6E00622A
:1057D000326F6666006F6B00485454502F312E3183
:1057E00020323030204F4B00436F6E74656E742D45
:1057F000547970653A20746578742F68746D6C0004
:10580000436F6E6E656374696F6E3A20636C6F737D
:1058100065003C21444F43545950452048544D4C59
:105820003E003C68746D6C3E0074657374003C2FE0
:1058300068746D6C3E00456E6420616E73776572AE
:0E58400020666F7220726571756573740000CA
:00000001FF
